:100000000C944A010C947B010C947B010C947B01B1
:100010000C947B010C947B010C947B010C947B0170
:100020000C947B010C947B010C947B010C947B0160
:100030000C947B010C947B010C947B010C947B0150
:100040000C947B010C947B010C947B010C947B0140
:100050000C947B010C947B010C947B010C94CC04DC
:100060000C947B010C9440050C9416050C947B01B8
:100070000C947B010C947B010C947B010C947B0110
:100080000C947B010C947B010C947B010C947B0100
:100090000C947B010C947B010C947B010C947B01F0
:1000A0000C947B010C947B010C947B010C947B01E0
:1000B0000C947B010C947B010C947B010C947B01D0
:1000C0000C947B010C947B010C947B010C947B01C0
:1000D0000C947B010C947B010C947B010C947B01B0
:1000E0000C947B010C9477070C9499030C94D30126
:1000F0000C94B1020C9415070C94CC010C940103E0
:100100000C94F1010C94F5010C94F9010C94D901B3
:100110000C9446070C9447030C94EF060C940A07C2
:100120000C944A0A0C94ED020C94E3010C94FF0128
:100130000C94C4010C94AD010C940F030C9456075D
:100140000C9482070C94DE020C94EA060C94F406DC
:100150000C9461070C94D0010C9425070C943B0778
:100160000C94C8010C94B2010C946C070C94DD0142
:100170000C94EB010C948D070C9430070C94030243
:100180000C94E7010C94FF060C941D07000021005D
:10019000240027002A002D00300033000101000058
:1001A000040107010A0100002200250028002B009D
:1001B0002E003100340002010000050108010B018E
:1001C00005050505070508080808020202020A0AD3
:1001D00008080404040401010101010101010303F1
:1001E000030303030303040707070C0C0C0C0C0C9C
:1001F0000C0C0202020206060606060606060B0B99
:100200000B0B0B0B0B0B01021020200808102040D9
:1002100010204080020102010804020101020408CA
:100220001020408080402010080402018004020158
:1002300080402010080402010804020101020408A1
:1002400010204080010204081020408000000A0BAA
:1002500002090C0D0E080703040100000000000055
:10026000000000000000000000000000000000008E
:10027000000000000000000012111000000000004B
:10028000000000000000000000000000000000006E
:1002900000004A0A11241FBECFEFD1E2DEBFCDBF5E
:1002A00000E00CBF12E0A0E0B2E0E2E0F5E100E027
:1002B0000BBF02C007900D92AC31B107D9F723E014
:1002C000ACE1B2E001C01D92A23EB207E1F711E03D
:1002D000CAE4D1E000E006C021970109802FFE01A9
:1002E0000E94770AC934D10780E00807A9F70E9465
:1002F00076050C947F0A0C940000282F30E0F90159
:10030000E45BFD4F9491F901EA5FFD4F4491205465
:100310003E4FF9012491222309F435C0992311F1AC
:1003200091509231F8F4E92FF0E08827E556FE4F1E
:100330008F4F0C94770ACC01D001AD01C401C801E4
:10034000B201D301D901DD01E301E701EB01F101C4
:10035000F501B201F901FF010302809180008F775E
:1003600080938000E22FF0E0EE0FFF1FEA55FE4F72
:10037000A591B4918FB7F894EC91611148C0409564
:100380004E234C938FBF0895809180008F7DE8CFDE
:1003900080918000877FE4CF84B58F7784BDE2CFE2
:1003A00084B58F7DFBCF8091B0008F778093B000B4
:1003B000D9CF8091B0008F7DF9CF809190008F7759
:1003C00080939000CFCF809190008F7DF9CF809166
:1003D0009000877FF5CF8091A0008F778093A00059
:1003E000C1CF8091A0008F7DF9CF8091A000877F41
:1003F000F5CF809120018F7780932001B3CF80913A
:1004000020018F7DF9CF80912001877FF5CF4E2B82
:10041000B8CFCF93DF9390E0FC01EA5FFD4F2491CA
:1004200080549E4FFC0184918823D1F090E0880F86
:10043000991FFC01E457FE4FA591B491FC01EA55C8
:10044000FE4FC591D49161110EC09FB7F8948C9165
:10045000E22FE0958E238C932881E223E8839FBFCF
:10046000DF91CF9108958FB7F894EC91E22BEC9344
:100470008FBFF6CF3FB7F89480914103909142032C
:10048000A0914303B091440326B5A89B05C02F3F1C
:1004900019F00196A11DB11D3FBFBA2FA92F982FAA
:1004A0008827BC01CD01620F711D811D911D42E0A5
:1004B000660F771F881F991F4A95D1F708958F926D
:1004C0009F92AF92BF92CF92DF92EF92FF924B0139
:1004D0005C010E943A026B017C010E943A026C1995
:1004E0007D098E099F09683E734081059105A8F337
:1004F00021E0821A9108A108B10888EEC80E83E0B5
:10050000D81EE11CF11C81149104A104B10429F747
:10051000FF90EF90DF90CF90BF90AF909F908F9023
:1005200008951F93CF93DF93182FC3E0D0E061E0CD
:10053000812F0E947D016EE170E080E090E00E94DA
:100540005F0260E0812F0E947D016EE170E080E03B
:1005500090E00E945F02219751F7DF91CF911F91A8
:100560000895AF92BF92CF92DF92EF92FF920F93D6
:100570001F93CF93DF936C017B018B01040F151F39
:10058000EB015E01AE18BF08C017D10759F06991A1
:10059000D601ED91FC910190F081E02DC6011995F5
:1005A000892B79F7C501DF91CF911F910F91FF90B2
:1005B000EF90DF90CF90BF90AF900895FC01538DE6
:1005C000448D252F30E0842F90E0821B930B54172D
:1005D00010F0CF96089501970895FC01918D828DBA
:1005E000981761F0A28DAE0FBF2FB11D5D968C9153
:1005F000928D9F5F9F73928F90E008958FEF9FEF92
:100600000895FC01918D828D981731F0828DE80F4D
:10061000F11D858D90E008958FEF9FEF0895FC0107
:10062000918D228D892F90E0805C9F4F821B9109D4
:100630008F739927089585E493E00E940F0321E0CA
:10064000892B09F420E0822F0895FC01A48DA80FC6
:10065000B92FB11DA35ABF4F2C91848D90E0019604
:100660008F739927848FA689B7892C93A089B18924
:100670008C91837080648C93938D848D981306C0C5
:100680000288F389E02D80818F7D80830895EF9229
:10069000FF920F931F93CF93DF93EC0181E0888F3C
:1006A0009B8D8C8D98131AC0E889F989808185FF0C
:1006B00015C09FB7F894EE89FF896083E889F989AE
:1006C00080818370806480839FBF81E090E0DF91B0
:1006D000CF911F910F91FF90EF900895F62E0B8D03
:1006E00010E00F5F1F4F0F731127E02E8C8D8E11BE
:1006F0000CC00FB607FCFACFE889F989808185FF25
:10070000F5CFCE010E942503F1CFEB8DEC0FFD2F2D
:10071000F11DE35AFF4FF0829FB7F8940B8FEA89DF
:10072000FB8980818062CFCF682F85E493E00C94B1
:100730004703CF93DF93EC01888D8823B9F0AA8912
:10074000BB89E889F9898C9185FD03C0808186FD8C
:100750000DC00FB607FCF7CF8C9185FFF2CF8081DB
:1007600085FFEDCFCE010E942503E9CFDF91CF9128
:10077000089580E090E0892B29F00E941B038111ED
:100780000E94000080E090E0892B49F080E090E03A
:10079000892B29F00E94000081110E94000080E056
:1007A00090E0892B49F080E090E0892B29F00E94AD
:1007B000000081110E94000080E090E0892B49F048
:1007C00080E090E0892B29F00E94000081110C94B8
:1007D0000000089580913803909139030196909319
:1007E00039038093380385E10C94940320912B0204
:1007F00030912C02809136039091370320323105DD
:1008000011F4807F08952034310511F4807E08951D
:100810002038310511F4807C08952115314009F408
:100820008078089585E493E00E940F03892BD1F32B
:1008300085E493E00E94ED020895CF93C82F0E94B3
:100840001204803251F484E10E9494038C2F0E94A0
:10085000940380E1CF910C9494038091380390919C
:1008600039030196909339038093380385E1F2CFE1
:100870000E941204803231F484E10E94940380E1EA
:100880000C949403809138039091390301969093CE
:1008900039038093380385E1F3CF0F931F93CF93F0
:1008A000DF938C01C3E3D2E0CE01835392408017E3
:1008B000910724F40E9412048993F6CFDF91CF911F
:1008C0001F910F9108958EBD00000DB407FEFDCF5E
:1008D0008EB508951F93CF93DF93162FD42FC22F79
:1008E0000E946304812F0E9463048D2F0E94630481
:1008F0008C2FDF91CF911F910C946304EF92FF92A4
:100900000F931F93CF93DF93EC018B01CB010E94D8
:100910004D0460E087E00E947D0183E3E82E82E0E1
:10092000F82E0C0F1D1FC017D10781F0F701219180
:100930007F014C2F6D2F80EC0E946A046DE270E005
:1009400080E090E00E945F022196EDCF61E087E0B9
:100950000E947D0180E1DF91CF911F910F91FF9067
:10096000EF900895CF93DF93D82FC92F60E087E0F1
:100970000E947D0120E04D2F6C2F8CE40E946A04C0
:100980006EE170E080E090E00E945F0261E087E04D
:10099000DF91CF910C947D011F920F920FB60F92B1
:1009A00011242F933F938F939F93AF93BF93809185
:1009B0003D0390913E03A0913F03B09140033091DD
:1009C0003C0323E0230F2D3758F50196A11DB11DDF
:1009D00020933C0380933D0390933E03A0933F03F9
:1009E000B09340038091410390914203A09143034F
:1009F000B09144030196A11DB11D809341039093D2
:100A00004203A0934303B0934403BF91AF919F91DE
:100A10008F913F912F910F900FBE0F901F901895BF
:100A200026E8230F0296A11DB11DD2CF1F920F926F
:100A30000FB60F9211240BB60F922F933F934F9343
:100A40005F936F937F938F939F93AF93BF93EF9336
:100A5000FF9385E493E00E942503FF91EF91BF91FE
:100A6000AF919F918F917F916F915F914F913F9146
:100A70002F910F900BBE0F900FBE0F901F901895E7
:100A80001F920F920FB60F9211240BB60F922F9355
:100A90008F939F93EF93FF93E0915503F09156034B
:100AA0008081E0915B03F0915C0382FD1DC0908129
:100AB00080915E038F5F8F7320915F03821741F0F7
:100AC000E0915E03F0E0EB5BFC4F958F80935E035B
:100AD000FF91EF919F918F912F910F900BBE0F90EF
:100AE0000FBE0F901F9018958081F2CF789484B537
:100AF000826084BD84B5816084BD85B5826085BD1A
:100B000085B5816085BD80916E00816080936E00A7
:100B10001092810080918100826080938100809199
:100B2000810081608093810080918000816080934A
:100B300080008091B10084608093B1008091B0000A
:100B400081608093B00080919100826080939100D9
:100B500080919100816080939100809190008160EC
:100B6000809390008091A10082608093A100809189
:100B7000A10081608093A1008091A000816080939A
:100B8000A000809121018260809321018091210148
:100B900081608093210180912001816080932001F8
:100BA00080917A00846080937A0080917A008260DC
:100BB00080937A0080917A00816080937A0080919E
:100BC0007A00806880937A001092C100E09155030A
:100BD000F091560382E08083E0915103F09152033B
:100BE0001082E0915303F091540387E680831092C2
:100BF0005D03E0915903F0915A0386E08083E09110
:100C00005703F0915803808180618083E0915703FE
:100C1000F0915803808188608083E0915703F091C0
:100C20005803808180688083E0915703F0915803D6
:100C300080818F7D808361E087E00E94090287E0E8
:100C400090E00E94910261E088E00E94090288E041
:100C500090E00E94910261E089E00E94090289E02F
:100C600090E00E94910205E5202E02E0302E8BE8F4
:100C7000A82EBB24B39488248394912C25EF422E74
:100C800021E0522E3BE3632E32E0732E80913A0333
:100C900090913B0361E0892B09F460E087E00E94BA
:100CA0007D01809138039091390361E0892B09F42B
:100CB00060E088E00E947D012FB7F89480913D03A9
:100CC00090913E03A0913F03B09140032FBF40910C
:100CD0001C0250911D0260911E0270911F028C0136
:100CE0009D01041B150B260B370BB901A8014832D7
:100CF00051056105710518F180931C0290931D0246
:100D0000A0931E02B0931F02C091010280910002C5
:100D1000C13C20F081958093000202C0C032D0F324
:100D200080910002C80FC093010261E089E00E9437
:100D30000902C1112BC060E089E00E947D0185E4B9
:100D400093E00E940F03892B09F4DBC20E94120476
:100D5000813509F43FC308F06FC1813409F4F9C14A
:100D600008F0DEC0803309F4DBC1813309F4DFC150
:100D7000803209F07FC38091380390913903019646
:100D8000909339038093380385E1B0C2CF3F11F4CB
:100D900061E0D2CFF1018491EFEFE80FE23108F08A
:100DA000BCC0F0E08827E852F94F8F4F0C94770AC7
:100DB000EA06EF06F406FF060A078D0715071D076A
:100DC000250730073B074607560761078D076C0765
:100DD0007707820784B5806884BDC7BDB0CF84B56E
:100DE000806284BDC8BDABCF809180008068809355
:100DF0008000D0E0D0938900C0938800A0CF80917C
:100E00008000806280938000D0E0D0938B00C093FC
:100E10008A0095CF80918000886080938000D0E028
:100E2000D0938D00C0938C008ACF8091B0008068F1
:100E30008093B000C093B30082CF8091B0008062F5
:100E40008093B000C093B4007ACF80919000806806
:100E500080939000D0E0D0939900C09398006FCF1A
:100E600080919000806280939000D0E0D0939B00AE
:100E7000C0939A0064CF8091900088608093900026
:100E8000D0E0D0939D00C0939C0059CF8091A000EA
:100E900080688093A0008091A0008F7B8093A00049
:100EA000D0E0D093A900C093A80049CF8091A000C2
:100EB00080628093A000D0E0D093AB00C093AA00E2
:100EC0003ECF8091A00088608093A000D0E0D093B6
:100ED000AD00C093AC0033CF809120018068809337
:100EE0002001D0E0D0932901C093280128CF809120
:100EF0002001806280932001D0E0D0932B01C09329
:100F00002A011DCF80912001886080932001D0E0CC
:100F1000D0932D01C0932C0112CFC7FD39CF0BCF39
:100F2000853409F42DC1803509F42FC1823409F0CC
:100F3000A1C284E190E00E944D04209133022093ED
:100F400020028091340280932102809135028093A7
:100F5000220280913602809323028091370280938F
:100F60002402809138028093250280913902809377
:100F7000260280913A028093270280913B0280935F
:100F8000280280913D0290E0982F882730913E0200
:100F9000830F911D90932A028093290280913F0232
:100FA00090E0982F882730914002830F911D9093F5
:100FB0002C0280932B028091410290E0982F882789
:100FC00030914202830F911D90932E0280932D0247
:100FD0008091430290E0B0E0A0E0BA2FA92F982FB3
:100FE000882730914402830F911DA11DB11DDC01A2
:100FF000992788274091450250E0542F4427052E19
:10100000000C660B770B840F951FA61FB71F30913E
:101010004602830F911DA11DB11D80932F02909355
:101020003002A0933102B093320281E0203E08F4F6
:1010300080E08093350378C0813609F422C1C0F482
:10104000863509F4B8C1803609F419C1853509F02F
:1010500011C20E941204C82F0E94120490E0982F1F
:1010600088278C0F911D90933703809336035CC0C3
:10107000843709F449C1853709F4DBC1843609F0A6
:10108000F9C10E941204C82FD0E0DC2FCC270E94A7
:101090001204C80FD11D0E941204863409F0F8C052
:1010A000CE010E944D040E941204803209F063CEEA
:1010B00084E10E9494030E94F6036C0133E3E32E63
:1010C00032E0F32EC701835392408C179D070CF03A
:1010D000DBC00E94F6038C159D0531F0C6010E940D
:1010E000B2040E94F6036C0100913603109137039D
:1010F000F7012081402F612F80E40E946A04F701EC
:101100002181402F612F88E40E946A040F5F1F4FE6
:101110001093370300933603F2E0EF0EF11CD2CFA9
:1011200010923903109238030E943804EAC00E94DA
:101130001204803209F01FCE84E10E94940347E03C
:1011400050E064E172E085E493E00E94B10280E146
:10115000CDC00E941204813879F020F4803841F02B
:1011600080E007C0823851F08339D1F783E501C0B0
:1011700082E00E941D04C5C081E0FBCF82E1F9CF6F
:1011800085E090E00E944D04CFCF80913A0390918A
:101190003B03892B49F6609135038AE00E947D016B
:1011A00061E08AE00E940902CFB7F894809134038D
:1011B000811125C0F2018491F3019491E82FF0E0B0
:1011C000EE0FFF1FE457FE4FA591B4918C91982329
:1011D00021F461E085E30E947D0161E085E30E94E6
:1011E00009028CB580618CBD8CB580648CBD61E0DA
:1011F00084E30E94090261E083E30E940902809176
:1012000034038F5F80933403CFBF809133038823EF
:1012100051F08FB7F89490913303913021F49DB33E
:101220009DB39DBB8FBF83E58CBD1DBC60E084E397
:101230000E947D0164E170E080E090E00E945F0226
:10124000C091350361E06C278AE00E947D01C501F1
:101250000197F1F76C2F8AE00E947D0162E370E054
:1012600080E090E00E945F0220E040E063E58CEACD
:101270000E946A0490923B0380923A0355CF0E94E9
:1012800012040E94120450CFC6010E94B2045FCF24
:10129000853409F08EC080912D0290912E028C171A
:1012A0009D0790F00091360310913703000F111F36
:1012B000C132D105F0F060E270E0C8010E947E0406
:1012C000005E1F4FA097F4CF8091380390913903AF
:1012D00001969093390380933803C1E10E94120470
:1012E000803269F484E10E9494038C2F0E9494035D
:1012F00008C0BE01C8010E947E04C0E1EFCF0E9479
:10130000EA030E94B903C2CC0E941204082F0E9473
:101310001204F82E0E941204D82F0E941204803268
:1013200019F00E94EA03EDCF10E0102F00270F0DF7
:10133000111D84E10E949403D63419F5F12CE12C9F
:10134000E016F1060CF003CFC0913603D0913703BD
:1013500020E04C2F6D2F80E20E946A040E949403CB
:1013600020E04C2F6D2F88E20E946A040E949403B3
:101370002196D0933703C093360322E0E20EF11C8E
:10138000DFCFD534B1F4C0913603D0913703CC0F01
:10139000DD1F0C0F1D1F0C171D0709F4D8CE2FEFF2
:1013A0004C2F6D2F80EA0E946A040E9494032196BC
:1013B000F2CF81E19BCF84E090E00E944D04209128
:1013C00036024091350260913402809133020E94CE
:1013D0006A04CFCE10923903109238039FB7F89465
:1013E00080913403882319F08150809334038091D5
:1013F0003403811105C08CB58F7B8CBD10923303F3
:101400009FBF60E083E30E94090260E084E30E94E2
:1014100009026091350381E068278AE00E947D011E
:1014200060E08AE00E94090210923B0310923A03A6
:101430007BCE0E941204803209F09DCC84E10E9490
:10144000940320E040E060E080E30E946A040E9490
:10145000940320E041E060E080E30E946A040E947F
:10146000940320E042E060E080E30E946A040E946E
:1014700094036DCE80913803909139030196909337
:101480003903809338030E941204803209F07CCC27
:1014900082E12CCFE5E4F3E01382128288EE93E040
:1014A000A0E0B0E084839583A683B78386E092E0D2
:1014B0009183808385EC90E09587848784EC90E02D
:1014C0009787868780EC90E0918B808B81EC90E011
:1014D000938B828B82EC90E0958B848B86EC90E0F2
:1014E000978B868B118E128E138E148E0895EE0FAD
:1014F000FF1F881F8BBF0790F691E02D1994F89479
:02150000FFCF1B
:101502000880000000004703B102DE0299030F03C6
:0C151200ED0201034156522049535000E5
:00000001FF
