:200000000C944A010C947B010C947B010C947B010C947B010C947B010C947B010C947B0131
:200020000C947B010C947B010C947B010C947B010C947B010C947B010C947B010C947B01E0
:200040000C947B010C947B010C947B010C947B010C947B010C947B010C947B010C94CC046C
:200060000C947B010C9440050C9416050C947B010C947B010C947B010C947B010C947B0138
:200080000C947B010C947B010C947B010C947B010C947B010C947B010C947B010C947B0180
:2000A0000C947B010C947B010C947B010C947B010C947B010C947B010C947B010C947B0160
:2000C0000C947B010C947B010C947B010C947B010C947B010C947B010C947B010C947B0140
:2000E0000C947B010C9477070C9499030C94D3010C94B1020C9415070C94CC010C940103F6
:200100000C94F1010C94F5010C94F9010C94D9010C9446070C9447030C94EF060C940A0786
:200120000C944A0A0C94ED020C94E3010C94FF010C94C4010C94AD010C940F030C945607B6
:200140000C9482070C94DE020C94EA060C94F4060C9461070C94D0010C9425070C943B07A5
:200160000C94C8010C94B2010C946C070C94DD010C94EB010C948D070C9430070C940302F6
:200180000C94E7010C94FF060C941D0700002100240027002A002D00300033000101000046
:2001A000040107010A0100002200250028002B002E003100340002010000050108010B01DC
:2001C00005050505070508080808020202020A0A0808040404040101010101010101030395
:2001E000030303030303040707070C0C0C0C0C0C0C0C0202020206060606060606060B0B26
:200200000B0B0B0B0B0B0102102020080810204010204080020102010804020101020408B5
:2002200010204080804020100804020180040201804020100804020108040201010204082B
:2002400010204080010204081020408000000A0B02090C0D0E080703040100000000000051
:2002600000000000000000000000000000000000000000000000000012111000000000004B
:200280000000000000000000000000000000000000004A0A11241FBECFEFD1E2DEBFCDBF5E
:2002A00000E00CBF12E0A0E0B2E0E2E0F5E100E00BBF02C007900D92AC31B107D9F723E0ED
:2002C000ACE1B2E001C01D92A23EB207E1F711E0CAE4D1E000E006C021970109802FFE01B8
:2002E0000E94770AC934D10780E00807A9F70E9476050C947F0A0C940000282F30E0F901B0
:20030000E45BFD4F9491F901EA5FFD4F449120543E4FF9012491222309F435C0992311F124
:2003200091509231F8F4E92FF0E08827E556FE4F8F4F0C94770ACC01D001AD01C401C80135
:20034000B201D301D901DD01E301E701EB01F101F501B201F901FF010302809180008F7775
:2003600080938000E22FF0E0EE0FFF1FEA55FE4FA591B4918FB7F894EC91611148C0409549
:200380004E234C938FBF0895809180008F7DE8CF80918000877FE4CF84B58F7784BDE2CF53
:2003A00084B58F7DFBCF8091B0008F778093B000D9CF8091B0008F7DF9CF809190008F77C0
:2003C00080939000CFCF809190008F7DF9CF80919000877FF5CF8091A0008F778093A00092
:2003E000C1CF8091A0008F7DF9CF8091A000877FF5CF809120018F7780932001B3CF80916E
:2004000020018F7DF9CF80912001877FF5CF4E2BB8CFCF93DF9390E0FC01EA5FFD4F249160
:2004200080549E4FFC0184918823D1F090E0880F991FFC01E457FE4FA591B491FC01EA5582
:20044000FE4FC591D49161110EC09FB7F8948C91E22FE0958E238C932881E223E8839FBF88
:20046000DF91CF9108958FB7F894EC91E22BEC938FBFF6CF3FB7F8948091410390914203E4
:20048000A0914303B091440326B5A89B05C02F3F19F00196A11DB11D3FBFBA2FA92F982F5A
:2004A0008827BC01CD01620F711D811D911D42E0660F771F881F991F4A95D1F708958F92C6
:2004C0009F92AF92BF92CF92DF92EF92FF924B015C010E943A026B017C010E943A026C19A2
:2004E0007D098E099F09683E734081059105A8F321E0821A9108A108B10888EEC80E83E0E0
:20050000D81EE11CF11C81149104A104B10429F7FF90EF90DF90CF90BF90AF909F908F907F
:2005200008951F93CF93DF93182FC3E0D0E061E0812F0E947D016EE170E080E090E00E94DC
:200540005F0260E0812F0E947D016EE170E080E090E00E945F02219751F7DF91CF911F9138
:200560000895AF92BF92CF92DF92EF92FF920F931F93CF93DF936C017B018B01040F151F84
:20058000EB015E01AE18BF08C017D10759F06991D601ED91FC910190F081E02DC60119952B
:2005A000892B79F7C501DF91CF911F910F91FF90EF90DF90CF90BF90AF900895FC01538D4D
:2005C000448D252F30E0842F90E0821B930B541710F0CF96089501970895FC01918D828DBC
:2005E000981761F0A28DAE0FBF2FB11D5D968C91928D9F5F9F73928F90E008958FEF9FEFDA
:200600000895FC01918D828D981731F0828DE80FF11D858D90E008958FEF9FEF0895FC016A
:20062000918D228D892F90E0805C9F4F821B91098F739927089585E493E00E940F0321E0D4
:20064000892B09F420E0822F0895FC01A48DA80FB92FB11DA35ABF4F2C91848D90E0019620
:200660008F739927848FA689B7892C93A089B1898C91837080648C93938D848D981306C05F
:200680000288F389E02D80818F7D80830895EF92FF920F931F93CF93DF93EC0181E0888FFB
:2006A0009B8D8C8D98131AC0E889F989808185FF15C09FB7F894EE89FF896083E889F98970
:2006C00080818370806480839FBF81E090E0DF91CF911F910F91FF90EF900895F62E0B8D89
:2006E00010E00F5F1F4F0F731127E02E8C8D8E110CC00FB607FCFACFE889F989808185FFD9
:20070000F5CFCE010E942503F1CFEB8DEC0FFD2FF11DE35AFF4FF0829FB7F8940B8FEA8923
:20072000FB8980818062CFCF682F85E493E00C944703CF93DF93EC01888D8823B9F0AA89FA
:20074000BB89E889F9898C9185FD03C0808186FD0DC00FB607FCF7CF8C9185FFF2CF8081BE
:2007600085FFEDCFCE010E942503E9CFDF91CF91089580E090E0892B29F00E941B0381118C
:200780000E94000080E090E0892B49F080E090E0892B29F00E94000081110E94000080E027
:2007A00090E0892B49F080E090E0892B29F00E94000081110E94000080E090E0892B49F0AC
:2007C00080E090E0892B29F00E94000081110C9400000895809138039091390301969093A8
:2007E00039038093380385E10C94940320912B0230912C02809136039091370320323105D8
:2008000011F4807F08952034310511F4807E08952038310511F4807C08952115314009F43D
:200820008078089585E493E00E940F03892BD1F385E493E00E94ED020895CF93C82F0E9416
:200840001204803251F484E10E9494038C2F0E94940380E1CF910C94940380913803909194
:2008600039030196909339038093380385E1F2CF0E941204803231F484E10E94940380E143
:200880000C94940380913803909139030196909339038093380385E1F3CF0F931F93CF9356
:2008A000DF938C01C3E3D2E0CE01835392408017910724F40E9412048993F6CFDF91CF91BA
:2008C0001F910F9108958EBD00000DB407FEFDCF8EB508951F93CF93DF93162FD42FC22FAF
:2008E0000E946304812F0E9463048D2F0E9463048C2FDF91CF911F910C946304EF92FF921D
:200900000F931F93CF93DF93EC018B01CB010E944D0460E087E00E947D0183E3E82E82E0D2
:20092000F82E0C0F1D1FC017D10781F0F70121917F014C2F6D2F80EC0E946A046DE270E0BE
:2009400080E090E00E945F022196EDCF61E087E00E947D0180E1DF91CF911F910F91FF9079
:20096000EF900895CF93DF93D82FC92F60E087E00E947D0120E04D2F6C2F8CE40E946A042A
:200980006EE170E080E090E00E945F0261E087E0DF91CF910C947D011F920F920FB60F9297
:2009A00011242F933F938F939F93AF93BF9380913D0390913E03A0913F03B091400330911B
:2009C0003C0323E0230F2D3758F50196A11DB11D20933C0380933D0390933E03A0933F03B1
:2009E000B09340038091410390914203A0914303B09144030196A11DB11D8093410390931A
:200A00004203A0934303B0934403BF91AF919F918F913F912F910F900FBE0F901F901895B7
:200A200026E8230F0296A11DB11DD2CF1F920F920FB60F9211240BB60F922F933F934F93EC
:200A40005F936F937F938F939F93AF93BF93EF93FF9385E493E00E942503FF91EF91BF918E
:200A6000AF919F918F917F916F915F914F913F912F910F900BBE0F900FBE0F901F901895A7
:200A80001F920F920FB60F9211240BB60F922F938F939F93EF93FF93E0915503F09156033A
:200AA0008081E0915B03F0915C0382FD1DC0908180915E038F5F8F7320915F03821741F0DA
:200AC000E0915E03F0E0EB5BFC4F958F80935E03FF91EF919F918F912F910F900BBE0F9024
:200AE0000FBE0F901F9018958081F2CF789484B5826084BD84B5816084BD85B5826085BD4B
:200B000085B5816085BD80916E00816080936E00109281008091810082608093810080915B
:200B20008100816080938100809180008160809380008091B10084608093B1008091B0008F
:200B400081608093B000809191008260809391008091910081608093910080919000816020
:200B6000809390008091A10082608093A1008091A10081608093A1008091A000816080939E
:200B8000A000809121018260809321018091210181608093210180912001816080932001DB
:200BA00080917A00846080937A0080917A00826080937A0080917A00816080937A00809135
:200BC0007A00806880937A001092C100E0915503F091560382E08083E0915103F091520320
:200BE0001082E0915303F091540387E6808310925D03E0915903F0915A0386E08083E091CD
:200C00005703F0915803808180618083E0915703F0915803808188608083E0915703F091DA
:200C20005803808180688083E0915703F091580380818F7D808361E087E00E94090287E0FA
:200C400090E00E94910261E088E00E94090288E090E00E94910261E089E00E94090289E0CC
:200C600090E00E94910205E5202E02E0302E8BE8A82EBB24B39488248394912C25EF422EE4
:200C800021E0522E3BE3632E32E0732E80913A0390913B0361E0892B09F460E087E00E9489
:200CA0007D01809138039091390361E0892B09F460E088E00E947D012FB7F89480913D0390
:200CC00090913E03A0913F03B09140032FBF40911C0250911D0260911E0270911F028C011E
:200CE0009D01041B150B260B370BB901A801483251056105710518F180931C0290931D0219
:200D0000A0931E02B0931F02C091010280910002C13C20F081958093000202C0C032D0F306
:200D200080910002C80FC093010261E089E00E940902C1112BC060E089E00E947D0185E42D
:200D400093E00E940F03892B09F4DBC20E941204813509F43FC308F06FC1813409F4F9C11D
:200D600008F0DEC0803309F4DBC1813309F4DFC1803209F07FC38091380390913903019613
:200D8000909339038093380385E1B0C2CF3F11F461E0D2CFF1018491EFEFE80FE23108F0F2
:200DA000BCC0F0E08827E852F94F8F4F0C94770AEA06EF06F406FF060A078D0715071D07EE
:200DC000250730073B074607560761078D076C077707820784B5806884BDC7BDB0CF84B5B0
:200DE000806284BDC8BDABCF80918000806880938000D0E0D0938900C0938800A0CF8091CE
:200E00008000806280938000D0E0D0938B00C0938A0095CF80918000886080938000D0E042
:200E2000D0938D00C0938C008ACF8091B00080688093B000C093B30082CF8091B000806224
:200E40008093B000C093B4007ACF80919000806880939000D0E0D0939900C09398006FCF7E
:200E600080919000806280939000D0E0D0939B00C0939A0064CF8091900088608093900052
:200E8000D0E0D0939D00C0939C0059CF8091A00080688093A0008091A0008F7B8093A000D1
:200EA000D0E0D093A900C093A80049CF8091A00080628093A000D0E0D093AB00C093AA0062
:200EC0003ECF8091A00088608093A000D0E0D093AD00C093AC0033CF8091200180688093CB
:200EE0002001D0E0D0932901C093280128CF80912001806280932001D0E0D0932B01C09347
:200F00002A011DCF80912001886080932001D0E0D0932D01C0932C0112CFC7FD39CF0BCF24
:200F2000853409F42DC1803509F42FC1823409F0A1C284E190E00E944D04209133022093F8
:200F4000200280913402809321028091350280932202809136028093230280913702809395
:200F600024028091380280932502809139028093260280913A028093270280913B02809355
:200F8000280280913D0290E0982F882730913E02830F911D90932A028093290280913F02D1
:200FA00090E0982F882730914002830F911D90932C0280932B028091410290E0982F88273D
:200FC00030914202830F911D90932E0280932D028091430290E0B0E0A0E0BA2FA92F982FD9
:200FE000882730914402830F911DA11DB11DDC01992788274091450250E0542F4427052EBA
:20100000000C660B770B840F951FA61FB71F30914602830F911DA11DB11D80932F029093B3
:201020003002A0933102B093320281E0203E08F480E08093350378C0813609F422C1C0F4B8
:20104000863509F4B8C1803609F419C1853509F011C20E941204C82F0E94120490E0982FAE
:2010600088278C0F911D90933703809336035CC0843709F449C1853709F4DBC1843609F0E9
:20108000F9C10E941204C82FD0E0DC2FCC270E941204C80FD11D0E941204863409F0F8C099
:2010A000CE010E944D040E941204803209F063CE84E10E9494030E94F6036C0133E3E32E0D
:2010C00032E0F32EC701835392408C179D070CF0DBC00E94F6038C159D0531F0C6010E9427
:2010E000B2040E94F6036C010091360310913703F7012081402F612F80E40E946A04F70189
:201100002181402F612F88E40E946A040F5F1F4F1093370300933603F2E0EF0EF11CD2CFB0
:2011200010923903109238030E943804EAC00E941204803209F01FCE84E10E94940347E057
:2011400050E064E172E085E493E00E94B10280E1CDC00E941204813879F020F4803841F0D2
:2011600080E007C0823851F08339D1F783E501C082E00E941D04C5C081E0FBCF82E1F9CFA0
:2011800085E090E00E944D04CFCF80913A0390913B03892B49F6609135038AE00E947D0196
:2011A00061E08AE00E940902CFB7F89480913403811125C0F2018491F3019491E82FF0E0FE
:2011C000EE0FFF1FE457FE4FA591B4918C91982321F461E085E30E947D0161E085E30E94F0
:2011E00009028CB580618CBD8CB580648CBD61E084E30E94090261E083E30E940902809151
:2012000034038F5F80933403CFBF80913303882351F08FB7F89490913303913021F49DB34F
:201220009DB39DBB8FBF83E58CBD1DBC60E084E30E947D0164E170E080E090E00E945F02FF
:20124000C091350361E06C278AE00E947D01C5010197F1F76C2F8AE00E947D0162E370E0A7
:2012600080E090E00E945F0220E040E063E58CEA0E946A0490923B0380923A0355CF0E9438
:2012800012040E94120450CFC6010E94B2045FCF853409F08EC080912D0290912E028C17E0
:2012A0009D0790F00091360310913703000F111FC132D105F0F060E270E0C8010E947E04FE
:2012C000005E1F4FA097F4CF809138039091390301969093390380933803C1E10E94120401
:2012E000803269F484E10E9494038C2F0E94940308C0BE01C8010E947E04C0E1EFCF0E94D8
:20130000EA030E94B903C2CC0E941204082F0E941204F82E0E941204D82F0E9412048032FE
:2013200019F00E94EA03EDCF10E0102F00270F0D111D84E10E949403D63419F5F12CE12CD9
:20134000E016F1060CF003CFC0913603D091370320E04C2F6D2F80E20E946A040E949403EB
:2013600020E04C2F6D2F88E20E946A040E9494032196D0933703C093360322E0E20EF11CC4
:20138000DFCFD534B1F4C0913603D0913703CC0FDD1F0C0F1D1F0C171D0709F4D8CE2FEF96
:2013A0004C2F6D2F80EA0E946A040E9494032196F2CF81E19BCF84E090E00E944D042091A7
:2013C00036024091350260913402809133020E946A04CFCE10923903109238039FB7F89416
:2013E00080913403882319F081508093340380913403811105C08CB58F7B8CBD10923303CB
:201400009FBF60E083E30E94090260E084E30E9409026091350381E068278AE00E947D0124
:2014200060E08AE00E94090210923B0310923A037BCE0E941204803209F09DCC84E10E947A
:20144000940320E040E060E080E30E946A040E94940320E041E060E080E30E946A040E9473
:20146000940320E042E060E080E30E946A040E9494036DCE80913803909139030196909329
:201480003903809338030E941204803209F07CCC82E12CCFE5E4F3E01382128288EE93E00B
:2014A000A0E0B0E084839583A683B78386E092E09183808385EC90E09587848784EC90E0C3
:2014C0009787868780EC90E0918B808B81EC90E0938B828B82EC90E0958B848B86EC90E0E7
:2014E000978B868B118E128E138E148E0895EE0FFF1F881F8BBF0790F691E02D1994F8942A
:20150000FFCF0880000000004703B102DE0299030F03ED0201034156522049535000639B04
:2015200020C090E2892B959B1EC090E1892B7B9B1CC098E0892B7A9B1AC094E0892B799B29
:2015400018C092E0892B9FB19170892B8093C600649BFECF6499FECFD0CF80E0DACF90E001
:20156000DDCF90E0DFCF90E0E1CF90E0E3CF90E0E5CF90E0E7CF789468EE73E080E090E090
:201580000E943C030E94E6029DCFEE0FFF1F881F8BBF0790F691E02D1994F894FFCF000036
:2015A00000007902E3011002C60241021F02330200000000F103C40320049F03BD03AE0367
:2015C000A0032A5244592A00FFFFFFFFFFFFFFFFFFFFFFFFFFFFFFFFFFFFFFFFFFFFFFFF3D
:2015E000FFFFFFFFFFFFFFFFFFFFFFFFFFFFFFFFFFFFFFFFFFFFFFFFFFFFFFFFFFFFFFFF0B
:201600009B8333E001C032E021E0912F977009F420E0912F959595959595290F29F48823C3
:2016200009F48DC0185F8BC0811102C094E001C093E0291708F4922FE92DF0E03196E40D07
:20164000F51D232F4191A1E0B0E0AC0FBD1FA20FB11D4C932F5F422F431B491798F3DFCF58
:201660008111DAC010320CF08FC010E230E73A839B818C8189279D8189279E8189278F8363
:201680009E01285F3F4F47E0BE016F5F7F4FC3015EDD81119FC01A8683E08B87FE01379643
:2016A0001F0109E08A84482D4295407F480D6AE1C30135DD1F92CE010A965C01FE013B9645
:2016C0006F0171019E012F5F3F4F40E36CE0C30181DD082F0F90823009F0C2CF6CE1C301B9
:2016E00005DD85FD99C08F7109F480E2282F30E0412F110F550B421753070CF043C0182F7E
:20170000822F85958595859591E0980F422F477081E009F480E0890FE1E0F0E0EC0FFD1F8C
:20172000E80FF11D215031092770332781E090E001C0880F2A95EAF79081892B8083103235
:201740000CF094CF912F97709A87812F8595859585958E5F292FF0E18F9F200D11242A83F1
:2017600001E0911101C000E0080F22242394312C2C0E3D1E280E311C39E0381B3B8792CF2D
:2017800006E04AC005E048C08B81883809F441C082E094E0E92DF0E03196E40DF51D980F75
:2017A000A1E0B0E0AC0FBD1FA80FB11D2C9121938F5F8913F5CF8B85833039F58A858111AB
:2017C00024C09E012D5F3F4F41E0B101C301BFDC882311F0082F20C09B81F10181819813BC
:2017E00016C09C818281981312C0808182FF04C0FC85FF5FFC87CDCEF20183878C85880F8E
:201800009C84980E9394908207C001E005C007E003C083E093E0BECF802F2D960FB6F8948C
:20182000DEBF0FBECDBFDF91CF911F910F91FF90EF90DF90CF90BF90AF909F908F907F90CB
:201840006F905F904F903F902F900895CF93FC01C48121E020937603C0935503109250031F
:2018600010924F038385682B8FE994E0FED890914F03913208F045C080914E038111FCCF25
:2018800082E080934E0381E080934D038FEF8093DA031092FC039093FB03A6E5B3E0EBED98
:2018A000F3E080E0981721F02D9121938F5FFACF1092FD038091FD03CC0FC82BC093FD0338
:2018C00080914C03813061F410924C038091FD038093BB008091BC0083FDF8CF85EC01C08C
:2018E00085EE8093BC0080914E038230E1F38091DA038F3F31F08091DA03803211F080912F
:20190000DA031092500310924F0310927603CF9108950F931F93CF938C01C62F97DF6C2FA0
:201920006460C80193DF6C2F6B7FC8018FDF83EC90E00197F1F7CF911F910F9108950F939E
:201940001F93CF93DF938C01C62FD42F607F642BE0DF80E1C89FB00111246D2BC801DF91D0
:20196000CF911F910F91D5CF41E0E9DF81E090E0089596E0899FD0011124A555BB4F9096EE
:201980007C936E935F9791E091969C93919790911705E0911805F0911905992339F030973C
:2019A00051F0811108C08091C70404C0309719F05C968C911994089590E0FC013197E2317B
:2019C000F10508F04EC08827E558FF4F8F4F0C947A1A809180008F7703C0809180008F7DC8
:2019E00080938000089580918000877FF9CF84B58F7702C084B58F7D84BD08958091B00073
:201A00008F7703C08091B0008F7D8093B0000895809190008F7707C0809190008F7D03C0F2
:201A200080919000877F8093900008958091A0008F7707C08091A0008F7D03C08091A00010
:201A4000877F8093A0000895809120018F7707C0809120018F7D03C080912001877F8093E5
:201A60002001089565E473E082E094E060C90F931F93CF93DF938C01C0E0D0E0F801EC0F14
:201A8000FD1F6491662341F082E094E00E940404892B11F02196F2CFCE01DF91CF911F917F
:201AA0000F910895CF93DF93E2DFEC01DBDF8C0F9D1FDF91CF9108958F929F92AF92BF9205
:201AC0000F931F93CF93DF93CDB7DEB7A1970FB6F894DEBF0FBECDBF19A2423008F44AE0F3
:201AE0008E010F5D1F4F842E912CA12CB12CA50194010E94581AE62FB901CA010150110910
:201B0000EA3014F4E05D01C0E95CD801EC93232B242B252B61F7B80182E094E008D9A1961C
:201B20000FB6F894DEBF0FBECDBFDF91CF911F910F91BF90AF909F908F900895BC0188E39D
:201B400095E0F5C840E061E088E395E0F8DE8BE39FE10197F1F70895CF92DF92EF92FF924D
:201B6000CF93DF936C01990FEE08FF08F7FE18C06DE282E094E00E940404EC0166277727CB
:201B8000CB016C197D098E099F094AE095DF8C0F9D1FDF91CF91FF90EF90DF90CF900895F1
:201BA0004AE0C701B601DF91CF91FF90EF90DF90CF9082CFCF93DF93CDB7DEB728970FB60E
:201BC000F894DEBF0FBECDBF98E0EDE5F2E0DE01119601900D929A95E1F790914105961796
:201BE00010F46FEF690FFE013196E60FF11DE60FF11D6081680F606840E088E395E0289661
:201C00000FB6F894DEBF0FBECDBFDF91CF9197CE0F931F93CF93DF938C01EB01FC018081A9
:201C200091810097B1F0688179816115710579F0428153812C813D814217530740F00E949B
:201C4000C11C8C819D81F8019583848313C00E943A1B88819981F801918380838A819B8140
:201C6000938382838C819D8195838483198218821B821A821D821C82DF91CF911F910F9134
:201C80000895CF92DF92EF92FF920F931F9396E0899FF0011124E555FB4F11A2278D30A1EF
:201CA0002130310531F158F02230310509F446C02330310509F04DC060E070E043C06623FD
:201CC00009F447C061E070E054DE2FB7F8948091FE039091FF03A0910004B09101042FBF2D
:201CE0008093030590930405A0930505B093060530C09FB7F894C090FE03D090FF03E0901D
:201D00000004F09001049FBF00910305109104052091050530910605C01AD10AE20AF30A74
:201D2000009115051091160520E030E00C151D052E053F0518F462E070E004C0611109C0D5
:201D400063E070E01F910F91FF90EF90DF90CF9010CE1F910F91FF90EF90DF90CF9008951D
:201D6000CF93DF93282F30E0F901ED5CF94F8491F901E351FA4FD491F901E955FA4FC491D6
:201D8000CC2389F0811118DEEC2FF0E0EE0FFF1FE357FA4FA591B491EC91ED2381E090E0F1
:201DA00021F480E002C080E090E0DF91CF9108951F93CF93DF93282F30E0F901ED5CF94F37
:201DC0008491F901E351FA4FD491F901E955FA4FC491CC23B9F0162F8111EEDDEC2FF0E017
:201DE000EE0FFF1FED58FA4FA591B4919FB7F894111104C08C91D095D82302C0EC91DE2B32
:201E0000DC939FBFDF91CF911F910895DF92EF92FF920F931F93CF93DF938C01F62ED42E7A
:201E2000E52E83E590E05FD960E0F8018685C0DF82E152D9CD2DDE2DCE018F0D911D7C0173
:201E4000EC16FD0619F0899147D9FACF61E0F8018685AEDFDF91CF911F910F91FF90EF9071
:201E6000DF9039C9CF93DF9390E0FC01E351FA4F2491FC01E955FA4F8491882361F190E078
:201E8000880F991FFC01E75AFA4FC591D491FC01ED58FA4FA591B491611109C09FB7F8948E
:201EA0008881209582238883EC912E230BC0623061F49FB7F8948881322F30958323888372
:201EC000EC912E2B2C939FBF06C08FB7F894E8812E2B28838FBFDF91CF9108958F929F92FD
:201EE000AF92BF92CF92DF92EF92FF926B017C017AD04B015C01C114D104E104F104E9F033
:201F000072D0DC01CB0188199909AA09BB09883E9340A105B10578F321E0C21AD108E1081D
:201F2000F10888EE880E83E0981EA11CB11CC114D104E104F10421F7DECFFF90EF90DF9033
:201F4000CF90BF90AF909F908F900895AF92BF92CF92DF92EF92FF920F931F93CF93DF930B
:201F60006C018B01DB011496AD90BC901597A114B10431F4E12CF12CAA24A394B12C03C04F
:201F8000EE24E394F12C67E473E0C6010E948306F801C481D581EC16FD06C8F4AC16BD0631
:201FA00008F4E501D801ED91FC911197EC0FFD1FB08010826D917C916E0D7F1DC6010E944F
:201FC0003806F80180819181C80FD91FB882C601DF91CF911F910F91FF90EF90DF90CF90EB
:201FE000BF90AF9008953FB7F8948091550590915605A0915705B091580526B5A89B05C03F
:202000002F3F19F00196A11DB11D3FBFBA2FA92F982F8827820F911DA11DB11DBC01CD019B
:2020200042E0660F771F881F991F4A95D1F708951F920F920FB60F9211242F933F938F932D
:202040009F93AF93BF938091FE039091FF03A0910004B09101043091540523E0230F2D3757
:2020600020F40196A11DB11D05C026E8230F0296A11DB11D209354058093FE039093FF03BB
:20208000A0930004B09301048091550590915605A0915705B09158050196A11DB11D809379
:2020A000550590935605A0935705B0935805BF91AF919F918F913F912F910F900FBE0F909E
:2020C0001F901895CF93DF93CDB7DEB7E5970FB6F894DEBF0FBECDBF789484B5826084BD8C
:2020E00084B5816084BD85B5826085BD85B5816085BD80916E00816080936E0010928100C6
:2021000080918100826080938100809181008160809381008091800081608093800080919A
:20212000B10084608093B1008091B00081608093B000809191008260809391008091910017
:20214000816080939100809190008160809390008091A10082608093A1008091A1008160FA
:202160008093A1008091A00081608093A000809121018260809321018091210181608093F5
:2021800021018091200181608093200180917A00846080937A0080917A00826080937A00E0
:2021A00080917A00816080937A0080917A00806880937A001092C100E0911204F0911304A4
:2021C00082E08083E0910E04F0910F041082E0911004F09111048FEC808310921A04E09127
:2021E0001604F091170486E08083E0911404F0911504808180618083E0911404F091150495
:20220000808188608083E0911404F0911504808180688083E0911404F091150480818F7D93
:20222000808310925203109251031092500310924F0310924E0381E080934D0310924C031D
:2022400061E084E1B5DD61E085E1B2DD8091B9008E7F8093B9008091B9008D7F8093B900CB
:2022600088E48093B80085E48093BC008BED94E090934B0380934A038CED94E090934903D6
:202280008093480310923D0580914105823018F098E090933D0590914205992339F0813010
:2022A00029F480913D05846080933D0562E370E080E090E013DE6091430588E395E0C6DA66
:2022C00068EE73E080E090E009DE60E388E395E020DB0BE416E4C8010197F1F760E388E3A0
:2022E00095E017DBC8010197F1F760E388E395E010DB83E592E00197F1F760E288E395E0A4
:2023000008DB60913D05606240E088E395E017DB84E080933E0540E06CE088E395E00FDB03
:2023200011DC82E080933F0540E066E088E395E006DB40E062E088E395E001DB8BE39FE1C4
:202340000197F1F788E08093430560E088E395E07DDA8EEA92E0F2DB1FB7F8948091530343
:20236000811123C0ECEDF5E08491E2E2F6E09491E82FF0E0EE0FFF1FE75AFA4FA591B4915F
:20238000EC91E92319F461E085E312DD61E085E369DD8CB580618CBD8CB580648CBD61E006
:2023A00084E360DD61E083E35DDD809153038F5F809353031FBF61E08091520553DD61E0E2
:2023C00080915205F5DC809153058F3F09F401C760E048DD80915305C3DC892B09F0F9C6EF
:2023E00061E0809153053EDD60E080915305E0DC83E090E00197F1F761E080915305D8DC02
:2024000062E370E080E090E069DD0EC0115061F062E370E080E090E061DD62E084E495E0CF
:202420000E94760884FDF2CF40E064E284E495E00E948F0840E066E284E495E00E948F0840
:2024400046E268E484E495E00E948F0840E864E584E495E00E948F0849EA66E584E495E010
:202460000E948F0843E068E584E495E00E948F0848EE6AE584E495E00E948F0840E46AE292
:2024800084E495E00E948F084DE362E284E495E00E948F0868E284E495E00E947608982F8E
:2024A0009370933039F0482F436068E284E495E00E948F086EE684E495E00E947608182F1B
:2024C00081EA91E0D4DA612F70E080E090E040E1F3DA103979F038F4123191F0183899F455
:2024E00086E991E012C0113941F0123961F48EE791E00BC08EE891E008C086E891E005C00B
:202500008AE691E002C08DE591E0CCDA11501E3F18F08AE191E0C6DA86EB91E0C3DA81E06D
:20252000809317058FB7F8944091FE035091FF0360910004709101048FBF8091070590915E
:202540000805A0910905B0910A05481B590B6A0B7B0B8091130590911405A0E0B0E084170F
:202560009507A607B70708F0EDC010E080911105181710F0312C3EC0E0910D05F0910E05F7
:20258000E10FF11D62E080816DDC1F5FEFCF022D10E0E0910D05F0910E05E00FF11F80813F
:2025A000DFDB0C5F1F4F000F111FF801E555FB4F892B09F049C08081918184299529918384
:2025C0008083239480911105281608F3E0910F05F0911005E80DF91D61E08081E9DB8091A4
:2025E0000F0590911005FC01E80DF91D60E0808139DC339480911205381658F5832C912C3D
:20260000E0910F05F0911005E80DF91D61E0808129DCE0910F05F0911005E80DF91D60E0E7
:202620008081C6DB81E090E0A0E0B0E0032C04C0880F991FAA1FBB1F0A94D2F72C013C0161
:2026400060947094212CBECF8081918186219721B6CF4BEA642E44E0742EF301878D90A1EB
:20266000892B31F4148E2FEF3FEF368F258F11A2369634E0E73EF30789F710E036E0532E61
:2026800080911105181770F500E0812E912CC401880F991FDC01AD54BB4F4D012091120521
:2026A0000217F0F4F40140815181002E02C0569547950A94E2F7642F6170129F900111248C
:2026C000200F311DEBEAF4E080E0A58DB68D2A173B0709F4A2C58F5F36968A30B1F781C5B6
:2026E0001F5FCECF80E0D30191969C91911181E0B6E06B0E711CE7EE6E16E4E07E0699F767
:202700009FB7F8944091FE035091FF0360910004709101049FBF4093070550930805609307
:20272000090570930A05882369F08091CC04882349F08091CA049091CB04019719F410919B
:20274000C70403C01092170510E080915403882309F41DC1112309F41AC167E473E080E243
:2027600095E00E94DB058111FCC067E473E086E295E00E94DB058111DEC067E473E08CE2DB
:2027800095E00E94DB058111C4C067E473E082E395E00E94DB05882309F4F9C0612FCE0172
:2027A00001960E945206BE016F5F7F4F82E395E02FDACE0101960E944D0660E083E0FAD979
:2027C00080EC92E0BBD960E275E0CE0101960E946A0666E275E0CE0101960E9427066CE258
:2027E00075E00E94270662E375E00E942706DC0114964D915C9115976D917C9182E094E06D
:202800000E9472032FD9CE0101960E944D0660E275E0CE0101960E946A0666E275E0CE01C3
:2028200001960E9427066CE275E00E94270662E375E00E942706BC01CE0143960E946A06E0
:20284000CE0101960E944D062F89388D80911E0590911F052817390751F58B899C89609138
:202860001A0570911B05009719F061157105A1F46115710549F0232B99F0FB01808190E08E
:202880009195819591090AC0009751F0232B41F0DC018C9190E002C00E94B81C892B39F4BE
:2028A00051D960E080E086D982EC92E006C04AD960E080E07FD98AEC92E040D968EE73E084
:2028C00080E090E00BDB3ED960E080E073D98EEA92E034D91092540367E473E080E295E0DA
:2028E0000E94380667E473E086E295E00E94380667E473E08CE295E00E94380667E473E09E
:2029000082E395E00E943806CE0143960E944D063EC0612FCE0101960E945206BE016F5FE5
:202920007F4F8CE295E074D9CE0101960E944D0660E082E011C0612FCE0101960E945206DB
:20294000BE016F5F7F4F86E295E062D9CE0101960E944D0660E081E02DD980EC92E0EED85E
:2029600016C0F0D860E080E025D980EC92E0E6D8612FCE0101960E945206BE016F5F7F4F34
:2029800080E295E045D9CE0101960E944D0684E495E00E94410A882309F418C484E495E0BC
:2029A0000E946305882309F411C467E473E0CE0185960E94830610E080914605181708F06A
:2029C00042C0812F90E0FC01EC5BFA4F7F018381803118F469EA72E002C06CEA72E0CE0129
:2029E00001960E9483064D815E8169817A81CE0185960E94FA05CE0101960E944D06D701C5
:202A000013968C911C8A1B8A1E8A1D8A188E1F8A40E1BE016F5F7F4F90E001D5BE016F5FB8
:202A20007F4FCE0143960E9438064F89588D6B897C89CE0185960E94FA05CE0143960E94B5
:202A40004D061F5FB9CF0DA11EA10115110561F0F8018081882341F0082E000C990B77D729
:202A6000D8018D938D01F4CFBE016B5D7F4FCE0101966CDA6FEC72E0CE0101960E94DB0576
:202A8000182FCE0101960E944D06112381F060E080E090D857D88BED92E050D861E080E005
:202AA00089D889EE92E04AD86AEF72E045C0BE016B5D7F4FCE01019649DA6FEF72E0CE019D
:202AC00001960E94DB05182FCE0101960E944D06112381F060E080E06DD834D88BE093E0C7
:202AE0002DD861E080E066D889EE92E027D86CE173E022C0BE016B5D7F4FCE01019626DACD
:202B000061E273E0CE0101960E94DB05182FCE0101960E944D061123B1F060E080E04AD8FE
:202B200011D88DE293E00AD861E080E043D889EE92E004D860E473E08AE195E00E94380610
:202B400081E0809354038CE194E00E94370D10E0809146051817D8F4812F90E0FC01EC5B38
:202B6000FA4F7F018381803118F489E194E002C087E194E00E94370DD70113966C9170E09B
:202B800080E090E040E10E945C0D1F5FE1CF0E94320D8CE094E00E94370D8091510580314C
:202BA00020F48AE094E00E94370D6091510570E080E090E040E10E945C0D0E94320DE09158
:202BC0005105EF77E13428F4F0E0E45EFD4F108101C010E08EEF93E00E94370D153021F13B
:202BE00078F4123081F128F4113051F58AED93E02CC01330B1F0143019F580E993E025C045
:202C00001830C1F038F4163091F01730C9F487E593E01BC0193089F01F3F91F486E193E08B
:202C200014C08BE993E011C085E893E00EC083E693E00BC088E493E008C089E393E005C068
:202C400089E093E002C082EB93E00E94520DE0915105EF77E13408F0AFC2F0E0E45EFD4FEC
:202C60009081492F50E0FA013197E930F10508F0A3C28827EE58FF4F8F4F3CC48FEF8F8FAF
:202C800088A389A38AA38BA38CA39350E92FF0E0E75EFD4F1081112309F4F9C18CEB92E092
:202CA0000E94520D99249A94910E115C110F110F97FCEDC1BFE1B9156CF4E7E2E9150CF406
:202CC000E3C1892D8295807FB0E86B2E680E00E1202E03C0612EA4E02A2E77247A94720C59
:202CE000512C44244394892D092C000C990BAA0BBB0B8AAB9BABACABBDAB372C360C4420BF
:202D0000A1F099E099151CF088EB92E002C085EB92E00E94370D4AE06AA97BA98CA99DA9A4
:202D20000E945C0D81EB92E002C089EA92E00E94370DA9E0A31518F085EA92E008C0B3E692
:202D4000B31518F082EA92E002C080EA92E00E94370D832D90E0A0E0B0E04AE0BC01CD015C
:202D60000E945C0D8DE992E00E94370D4420F1F1E0E6EB8B6C8ACE014F96BE016B5E7F4FF8
:202D8000DE015B969C01FC014191CF01FB014193BF01AE17BF07B9F7E0914605F0E0ED5B88
:202DA000FA4F81918D932A173B07D9F71F92812CA12CB12CC12CD12CE12CF12C0CE09E019E
:202DC0002D5E3F4F40E16EE084E495E00E94EA08082F0F90882351F081E892E00E94370D77
:202DE000802F0E943C080E94520D4EC1F2E1FFA720E329833A829E012D5F3F4F42E0BE01B0
:202E00006F5F7F4F84E495E00E94A708811118C031E03F93812CA12CB12CCE018F966C01E3
:202E2000DE0111967D0104E09D0140E36CE084E495E00E94EA08082F0F90882361F001C099
:202E4000082F8AE692E00E94370D802F0E943C080E94520D15C1FE0131967F0100E0670179
:202E6000D7018C91803118F487E692E002C085E692E00E94370DBFEFEB1AFB0AF6016081AC
:202E800070E080E090E040E10E945C0D802F8370833021F483E692E00E94370D0F5F00311C
:202EA000F1F6442009F47CC06885462F50E0E4E055954795EA95E1F79985A92FAF70292FAE
:202EC00030E0F4E035952795FA95E1F7EF818E2F8F70482E512C40945094FFE04F22552481
:202EE00044155505D1F44A2E512CF0E080EFE82774E0F695E7957A95E1F74E165F0669F4AF
:202F00006F7070E0609570956F707727552453946217730721F4512C02C055245394B92F1C
:202F2000B170B8AB19AA68A979A9660F771F822F8170862BBA0161707727660F771F660F0F
:202F4000771F682B6BA7FA01E270FF27EE0FFF1F21FB662760F98E2F862BA270A82BACA700
:202F6000692F647070E075956795842F8470682B22FB882780F9682B6DA74870552755954B
:202F8000479553E0369527955A95E1F7242B9870892F90E09595879595958795822B8EA7E7
:202FA000E4E02E16B1F0872D65E062D2833009F43EC1082F282F880F330B872D072C000C36
:202FC000990B019665E070E060D22617370711F431C0072D8FE592E00E94370DEBE2F0E0E1
:202FE000EC0FFD1FE00FF11DF080F2FA882780F990E00E94AC0D8DE592E00E94370DF1FAB9
:20300000882780F990E00E94AC0D8BE592E00E94370D8F2D817090E00E94AC0D87E592E09F
:203020000E94370D552021F081E392E00E94370D033019F1EBE2F0E0EC0FFD1FE00FF11D7A
:203040008081813011F08630C1F4C980DA80EB80FC8087E292E00E94370D40E1C701B60167
:203060000E945C0D8FE192E00E94370D6D8570E080E090E040E10E945C0D0E94320D412CF1
:203080007A94FFEF7F1239CE9A94145011CE84E495E00E94E70948E060E184E495E00E94D4
:2030A0002F0A8AC08EE092E00E94520D10E082E1982E90E3792E662463949B8A79821A833B
:2030C0009E012D5F3F4F42E0BE016F5F7F4F84E495E00E94A708811118C06F92812CA12CA7
:2030E000B12C9E012D5E3F4F6901CE0101967C0104E09C0140E36CE084E495E00E94EA088D
:20310000082F0F90882351F001C0082F87EF91E00E94370D802F0E943C084CC000E0812EF8
:2031200099E0981518F084EF91E002C082EF91E00E94370D882D90E0A0E0B0E04AE0BC01D7
:20314000CD010E945C0D8FEE91E00E94370D312C432C400E512CE1E0F0E0EC0FFD1FE40D92
:20316000F51D8081803118F48CEE91E002C08AEE91E00E94370DE1E0F0E0EC0FFD1FE40D6A
:20318000F51D608170E080E090E040E10E945C0D3394A4E03A12DCCF0E94320D83940C5F4B
:2031A000003109F0BDCF1C5F103109F086CF04C086E294E00E94520D0E94320D84E495E0F0
:2031C0000E94E709CE0185960E944D060E947104A6C94FE062E084E495E00E948F0813E07E
:2031E00017C940FF1CC0EBEAF4E080E090E0448D411117C0E0910B05F0910C05E20FF31F4B
:203200004081589EF001599EF00D1124E555FB4F448F368F258F10A2178E0E94410E0F5F57
:203220003DCA019636968A30910509F7F8CF03E0D1CE8AE195E00E944D0682E395E00E943A
:203240004D068CE295E00E944D0686E295E00E944D0680E295E00C944D061092050410925A
:20326000040488EE93E0A0E0B0E08093060490930704A0930804B093090429E632E030938F
:2032800003042093020425EC30E030930F0420930E0424EC30E0309311042093100420ECE7
:2032A00030E0309313042093120421EC30E0309315042093140422EC30E0309317042093E8
:2032C000160426EC30E0309319042093180410921B0410921C0410921D0410921E04109257
:2032E000A2041092A1048093A3049093A404A093A504B093A6048BE792E09093A0048093D5
:203300009F0483EA92E0909345058093440585E38093520585E08093530510923B0510923C
:203320003A0587E992E0909339058093380587E280933C0584E18093400584E08093410584
:203340001092420588E08093430567E473E080E295E00E94830667E473E086E295E00E9404
:20336000830667E473E08CE295E00E94830667E473E082E395E00E94830667E473E08AE16C
:2033800095E00E9483061092AD041092B1041092B0041092B2048DE892E09093AC04809368
:2033A000AB04EBEAF4E0148E10A2178E11A2369684E0E73EF807B9F783E092E090930E05FA
:2033C00080930D0580E092E09093100580930F0584E08093110583E08093120587E092E0A4
:2033E00090930C0580930B058AE090E0909314058093130584EF91E09093160580931505E6
:20340000109219051092180510920705109208051092090510920A05109217050895BB2732
:20342000FB015527AA27880F991FAA1FA41710F0A41B83955051B9F7A05DAA3308F0A95D70
:20344000A193009779F7B111B1931192CB0100C0DC01FC01672F71917723E1F7329704C08B
:203460007C916D9370836291AE17BF07C8F3089587FB082E062687FD819567FD619542D08C
:203480000EF4919507FC8195089597FB072E16F4009406D077FD08D041D007FC05D03EF4AC
:2034A000909581959F4F0895709561957F4F0895A1E21A2EAA1BBB1BFD010DC0AA1FBB1F0C
:2034C000EE1FFF1FA217B307E407F50720F0A21BB30BE40BF50B661F771F881F991F1A94C5
:2034E00069F760957095809590959B01AC01BD01CF010895EE0FFF1F881F8BBF0790F6919A
:20350000E02D1994991B79E004C0991F961708F0961B881F7A95C9F780950895AA1BBB1B4F
:2035200051E107C0AA1FBB1FA617B70710F0A61BB70B881F991F5A95A9F780959095BC010C
:20354000CD0108950F931F93CF93DF938230910510F482E090E0E0915B05F0915C0520E007
:2035600030E0A0E0B0E0309719F1408151810281138148175907C8F08417950769F41097FE
:2035800031F012960C93129713961C9327C000935B0510935C0522C02115310519F0421734
:2035A000530718F49A01BD01EF01DF01F801DBCF21153105F9F0281B390B2430310580F4FF
:2035C0008A819B816115710521F0FB019383828304C090935C0580935B05FE01329644C02A
:2035E000FE01E20FF31F8193919322503109398328833AC02091590530915A05232B41F4D2
:20360000209115023091160230935A052093590520911302309114022115310541F42DB7B4
:203620003EB74091170250911802241B350BE0915905F0915A05E217F307A0F42E1B3F0B68
:203640002817390778F0AC014E5F5F4F2417350748F04E0F5F1F50935A054093590581936A
:20366000919302C0E0E0F0E0CF01DF91CF911F910F910895CF93DF93009709F481C0FC01A1
:20368000329713821282A0915B05B0915C05109781F420813181820F931F20915905309183
:2036A0005A052817390751F5F0935A05E093590567C0ED0120E030E0CE17DF0740F44A8144
:2036C0005B819E0141155105F1F0EA01F5CFD383C28340815181840F951FC817D90759F4B2
:2036E00088819981840F951F0296918380838A819B81938382832115310529F4F0935C0502
:20370000E0935B053DC0E901FB83EA8349915991C40FD51FEC17FD0761F480819181840F77
:20372000951F0296E90199838883828193819B838A83E0E0F0E012968D919C911397009726
:2037400019F0FD01DC01F7CF8D919C9111979D012E5F3F4F820F931F2091590530915A05A1
:203760002817390769F4309729F410925C0510925B0502C013821282B0935A05A093590566
:20378000DF91CF9108956F927F928F929F92AF92BF92CF92DF92EF92FF920F931F93CF932C
:2037A000DF93009781F4CB01DF91CF911F910F91FF90EF90DF90CF90BF90AF909F908F90E7
:2037C0007F906F90BFCEFC01E60FF71F9C0122503109E217F30708F4A5C0EC01D9010D9144
:2037E0001C91119706171707A8F00530110508F497C0C80104978617970708F491C00250C5
:203800001109061B170B019311936D937C93CF0131DF86C05B01A01AB10A4C01800E911E83
:20382000A0915B05B0915C05612C712CE12CF12C109709F446C08D919C911197A815B905E9
:20384000B1F56C0142E0C40ED11CCA14DB0478F14C018A189B08640142E0C40ED11C1296CE
:20386000BC9012971396AC91B5E0CB16D10440F0B282A38391828082D9016D937C9309C0D1
:203880000E5F1F4F800F911FF90191838083EB2DFA2FE114F10431F0D7011396FC93EE9320
:2038A00012973EC0F0935C05E0935B0539C06816790608F43C017D0112960D90BC91A02D9E
:2038C000B7CF8091590590915A0588169906E1F466167706C8F480911302909114020097B8
:2038E00041F48DB79EB74091170250911802841B950BE817F907B0F4F0935A05E093590580
:20390000F901718360830CC0CB011CDE7C01009749F0A801BE0123D0CE01ACDEC70104C0B7
:20392000CE0102C080E090E0DF91CF911F910F91FF90EF90DF90CF90BF90AF909F908F904E
:203940007F906F90089581E090E0F89421C09111089581568A5108F4805285580895FB0149
:20396000DC0102C001900D9241505040D8F70895FB01DC018D91019080190110D9F3990B49
:203980000895FB01DC0101900D920020E1F7089513E0CEE3D3E000E005C0802FFE01AADDBB
:2039A0002196011DCF33D10780E00807B1F7F894FFCF030208070605043132333435363758
:2039C00038392A302300005D05800005102806090000FF00000004030000000000000707B7
:2039E0000000000000000500000000000000010000000000000000000000000000000000C1
:203A0000000000000000000000000000000002000040001400540000000000040472039CE3
:203A2000035004CD03AB03BF0300000000350509057305DD040105ED04DE0400000000D79E
:203A400005D005D40500000000B40C72037305710300000000A40A410A63052030002000C1
:203A60005363616E2065656E206B616172742E2E2E002A00434F525245435400464F555432
:203A8000003638203435203333203030004B7572742C20766F6572206A6500776163687475
:203AA000776F6F726420696E2E2E2E0031323334003830203536203746204134004B796C3B
:203AC0006C69616E2C20766F6572206A65003433323100343520304620414320373500430F
:203AE0006F646572446F6A6F2C20766F6572206A650031333537000D0A00FFFFFFFFFFFFB8
:203B0000FFFFFFFFFFFFFFFFFFFFFFFFFFFFFFFFFFFFFFFFFFFFFFFFFFFFFFFFFFFFFFFFC5
:203B2000FFFFFFFFFFFFFFFFFFFFFFFFFFFFFFFFFFFFFFFFFFFFFFFFFFFFFFFFFFFFFFFFA5
:203B4000FFFFFFFFFFFFFFFFFFFFFFFFFFFFFFFFFFFFFFFFFFFFFFFFFFFFFFFFFFFFFFFF85
:203B6000FFFFFFFFFFFFFFFFFFFFFFFFFFFFFFFFFFFFFFFFFFFFFFFFFFFFFFFFFFFFFFFF65
:020000040003F7
:20E000000D9489F10D94B2F10D94B2F10D94B2F10D94B2F10D94B2F10D94B2F10D94B2F109
:20E020000D94B2F10D94B2F10D94B2F10D94B2F10D94B2F10D94B2F10D94B2F10D94B2F1C0
:20E040000D94B2F10D94B2F10D94B2F10D94B2F10D94B2F10D94B2F10D94B2F10D94B2F1A0
:20E060000D94B2F10D94B2F10D94B2F10D94B2F10D94B2F10D94B2F10D94B2F10D94B2F180
:20E080000D94B2F10D94B2F10D94B2F10D94B2F10D94B2F10D94B2F10D94B2F10D94B2F160
:20E0A0000D94B2F10D94B2F10D94B2F10D94B2F10D94B2F10D94B2F10D94B2F10D94B2F140
:20E0C0000D94B2F10D94B2F10D94B2F10D94B2F10D94B2F10D94B2F10D94B2F10D94B2F120
:20E0E0000D94B2F141546D656761323536300041726475696E6F206578706C6F726572205D
:20E1000073746B3530305632206279204D4C5300426F6F746C6F616465723E004875683FDC
:20E1200000436F6D70696C6564206F6E203D20004350552054797065202020203D20005F52
:20E140005F4156525F415243485F5F3D2000415652204C696243205665723D200047434305
:20E160002056657273696F6E203D20004350552049442020202020203D20004C6F772066B2
:20E18000757365202020203D20004869676820667573652020203D200045787420667573A6
:20E1A00065202020203D20004C6F636B20667573652020203D20004D6172202037203230EB
:20E1C000313300312E362E3800342E332E35005623202020414444522020206F7020636FC3
:20E1E00064652020202020696E737472756374696F6E2061646472202020496E7465727265
:20E20000757074006E6F20766563746F7200726A6D702020006A6D70200057686174207091
:20E220006F72743A00506F7274206E6F7420737570706F72746564004D7573742062652083
:20E2400061206C65747465720020005772697474696E672045450052656164696E6720456C
:20E26000450045452065727220636E743D00504F525400303D5A65726F2061646472003F78
:20E280003D43505520737461747300403D454550524F4D207465737400423D426C696E6B76
:20E2A000204C454400453D44756D7020454550524F4D00463D44756D7020464C41534800C2
:20E2C000483D48656C70004C3D4C69737420492F4F20506F72747300513D51756974005269
:20E2E0003D44756D702052414D00563D73686F7720696E7465727275707420566563746FC9
:20E30000727300593D506F727420626C696E6B002A0011241FBECFEFD1E2DEBFCDBF01E0F6
:20E320000CBF12E0A0E0B2E0EEE1FDEF03E00BBF02C007900D92A030B107D9F712E0A0E0E4
:20E34000B2E001C01D92AE30B107E1F70F9460F30D948DFE01E20EBF0FEF0DBF11241FBE9F
:20E360000D9460F30D9400F020E030E040ED57E005C0FA013197F1F72F5F3F4F2817390799
:20E38000C0F308959C01260F311DC901A0E0B0E02F5F3F4FABBFFC018791882361F0809389
:20E3A000C6008091C00086FFFCCF8091C00080648093C000EACF08958DE08093C600809141
:20E3C000C00086FFFCCF8091C00080648093C0008AE08093C6008091C00086FFFCCF809130
:20E3E000C00080648093C00008950F94C2F10F94DCF10895FC019081992359F09093C600AA
:20E400008091C00086FFFCCF8091C00080648093C0003196992379F70895282F982F92957E
:20E420009F70892F805D8A3308F0895F8093C6008091C00086FFFCCF8091C00080648093D9
:20E44000C000822F8F70982F905D9A3308F0995F9093C6008091C00086FFFCCF8091C00000
:20E4600080648093C00008959C01FB01853691051CF46330710594F0C90164E670E00F94BA
:20E480002EFE605D7F4F6093C6008091C00086FFFCCF8091C00080648093C0002B303105D2
:20E4A00014F43297B4F0C90164E670E00F942EFE6AE070E00F942EFE605D7F4F6093C60007
:20E4C0008091C00086FFFCCF8091C00080648093C000C9016AE070E00F942EFEC0968093F7
:20E4E000C6008091C00086FFFCCF8091C00080648093C00008951F93182F8EE692EE60E0E3
:20E500000F94C2F11093C6008091C00086FFFCCF8091C00080648093C0000F94DCF11F9173
:20E5200008952F923F924F925F926F927F928F929F92AF92BF92CF92DF92EF92FF920F935E
:20E540001F93DF93CF93CDB7DEB762970FB6F894DEBF0FBECDBF382E622ECA01DB015C01E2
:20E560006D01772420E2222E2E010894411C511C8BC081E0A81680E0B80681E0C80680E094
:20E58000D80628F0C601AA27BB270F940DF2BB27AD2D9C2D8B2D0F940DF28A2D0F940DF231
:20E5A0002092C6008091C00086FFFCCF8091C00080648093C0009DE29093C6008091C00001
:20E5C00086FFFCCF8091C00080648093C0002092C6008091C00086FFFCCF8091C000806415
:20E5E0008093C00019828601750188249924A1E03A1651F03A1620F0B2E03B1661F409C0D4
:20E600000BBFF701779007C0C7010F9477FE782E02C0F7017080872D0F940DF22092C6006C
:20E620008091C00086FFFCCF8091C00080648093C000872D8052F401EF70F0708F3520F41F
:20E64000E40DF51D708204C0E40DF51D8EE280830894E11CF11C011D111D0894811C911CB3
:20E6600090E18916910409F0C2CF80E190E0A0E0B0E0A80EB91ECA1EDB1E198AC2010F9413
:20E68000FAF10F94DCF16A94662009F072CF62960FB6F894DEBF0FBECDBFCF91DF911F91A2
:20E6A0000F91FF90EF90DF90CF90BF90AF909F908F907F906F905F904F903F902F900895FB
:20E6C0002F923F924F925F926F927F928F929F92AF92BF92CF92DF92EF92FF920F931F93A8
:20E6E000DF93CF93CDB7DEB7CD53D1400FB6F894DEBF0FBECDBF01E20EBF0FEF0DBF94B7F0
:20E70000F894A89514BE8091600088618093600010926000789493FF05C0E0910002F09138
:20E7200001021995279A2F9A8091C00082608093C00080E18093C40088E18093C1000000A3
:20E74000EE24FF24870144E0A42EB12CCC24DD2424C0C5010197F1F70894E11CF11C011D4A
:20E76000111D21E2E2162EE4F20620E0020720E0120718F031E0C32ED12CC801B70127ECA9
:20E780003BE140E050E00F9441FE611571058105910519F485B1805885B98091C00087FD75
:20E7A00003C0C114D104A9F2A6014F5F5F4FC25EDE4F59834883CE51D140C25EDE4F8881D4
:20E7C0009981CE51D140019711F00D9410FEC05DDE4F19821882C053D14060E0C15DDE4F79
:20E7E0001882CF52D14088249924C35DDE4F19821882CD52D140C05EDE4F188219821A8216
:20E800001B82C052D140CE5CDE4F188219821A821B82C253D140EE24FF2487010BBFF701CE
:20E8200007911691C45CDE4F19830883CC53D1400D940BFEC25EDE4F28813981CE51D1406B
:20E840002130310509F52091C600C25EDE4F19821882CE51D14022C02F5F3F4F4F4F5F4FC0
:20E86000213082E138078AE7480780E0580780F0C45CDE4FE881F981CC53D140EF5FFF4FBA
:20E8800019F0EE27FF27099420E030E040E050E08091C00087FFE0CF2091C600C35DDE4F6D
:20E8A00048815981CD52D1404F5F5F4FC35DDE4F59834883CD52D140213209F063C64A3016
:20E8C000510508F05FC60894811C911C53E08516910409F059C600E010E018C081E2809346
:20E8E000C6008091C00086FFFCCF8091C00080648093C0002F5F3F4F2931310579F70F94EA
:20E90000DCF10F5F1F4F0530110519F020E030E0E5CF10920A0210920B0210920C02109287
:20E920000D0210920602109207021092080210920902109202021092030210920402109283
:20E9400005028FEE90EE60E00F94F5F180E191EE60E00F94C2F18091C00087FFFCCF909133
:20E96000C600903608F09F759032B8F09093C6008091C00086FFFCCF8091C00080648093C3
:20E98000C000A0E2A093C6008091C00086FFFCCF8091C00080648093C000983409F4D7C132
:20E9A0009934B8F4923409F459C1933458F4903319F1903308F4E3C59F33A1F1903409F099
:20E9C000DEC5BDC0953409F470C1963409F0D7C598C1923509F42BC2933538F49C3409F4F6
:20E9E000F5C1913509F0CBC518C2963509F445C2993509F0C4C567C483E792EE62E00F941F
:20EA0000F5F11092060210920702109208021092090210920A0210920B0210920C021092B3
:20EA20000D0213C18FE792EE62E00F94F5F18FEE90EE60E00F94F5F181E291EE60E00F94A9
:20EA4000C2F187EB91EE60E00F94F5F180E391EE60E00F94C2F184EE90EE60E00F94F5F118
:20EA60008FE391EE60E00F94C2F186E090E061E070E00F9434F20F94DCF18DE591EE60E03E
:20EA80000F94C2F189EC91EE60E00F94F5F18EE491EE60E00F94C2F183EC91EE60E00F940B
:20EAA000F5F18CE691EE60E00F94C2F18EE10F940DF288E90F940DF281E00F940DF20F941F
:20EAC000DCF18BE791EE60E00F94C2F119E0E0E0F0E010935700E4918E2F0F940DF20F94E8
:20EAE000DCF18AE891EE60E00F94C2F1E3E0F0E010935700E4918E2F0F940DF20F94DCF1F1
:20EB000089E991EE60E00F94C2F1E2E0F0E010935700E4918E2F0F940DF20F94DCF188EA2C
:20EB200091EE60E00F94C2F1E1E0F0E0109357001491812F0F940DF20F94DCF107CF8BE885
:20EB400092EE62E00F94F5F18BE492EE60E00F94F5F10F94DCF100E010E019C0C8016F2D34
:20EB60000F947FFEFF2031F489E492EE60E00F94C2F10BC0F092C6008091C00086FFFCCF7A
:20EB80008091C00080648093C0000F5F1F4FC80181519F41A0E0B0E0ABBFFC01F790BAE2FC
:20EBA000FB1621F0E2E000301E07C1F60F94DCF10F94DCF187E592EE60E00F94F5F10F942D
:20EBC000DCF1CC24DD2400E010E01EC0C8010F9477FEF82E882331F489E492EE60E00F9422
:20EBE000C2F10BC08093C6008091C00086FFFCCF8091C00080648093C000FE1419F008945E
:20EC0000C11CD11C0F5F1F4FC80181519F41A0E0B0E0ABBFFC01E790FAE2EF1621F022E0F1
:20EC20000030120799F60F94DCF10F94DCF182E692EE60E00F94C2F1C60161E070E00F94A3
:20EC400034F20F94DCF10F94DCF11092020210920302109204021092050278CE89E992EED8
:20EC600062E00F94F5F1279A2F9A16C02F9880E090E0E0EDF7E03197F1F701968436910597
:20EC8000C1F72F9A80E090E0E0EDF7E03197F1F7019684369105C1F78091C00087FFE6CF24
:20ECA0008091C00087FFFCCF64C485EA92EE62E00F94F5F14091020250910302609104029E
:20ECC0007091050281E020E10F9491F28091020290910302A0910402B091050280509F4F2C
:20ECE000AF4FBF4F8093020290930302A0930402B093050280509041A040B04008F426CEE5
:20ED0000A4CF83EB92EE62E00F94F5F14091060250910702609108027091090280E020E19C
:20ED20000F9491F28091060290910702A0910802B091090280509F4FAF4FBF4F80930602FE
:20ED400090930702A0930802B0930902FFCD80EC92EE62E00F94F5F183E792EE60E00F94AC
:20ED6000F5F18FE792EE60E00F94F5F18BE892EE60E00F94F5F189E992EE60E00F94F5F177
:20ED800085EA92EE60E00F94F5F183EB92EE60E00F94F5F180EC92EE60E00F94F5F187ECDC
:20EDA00092EE60E00F94F5F188ED92EE60E00F94F5F18FED92EE60E00F94F5F18AEE92EE8F
:20EDC00060E00F94F5F183E093EEBDCD87EC92EE62E00F94F5F181E40F947BF282E40F94C0
:20EDE0007BF283E40F947BF284E40F947BF285E40F947BF286E40F947BF287E40F947BF249
:20EE000088E40F947BF28AE40F947BF28BE40F947BF28CE40F947BF299CD88ED92EE62E05C
:20EE20000F94F5F1772473948824992409C48FED92EE62E00F94F5F140910A0250910B02DF
:20EE400060910C0270910D0282E020E10F9491F280910A0290910B02A0910C02B0910D0240
:20EE600080509F4FAF4FBF4F80930A0290930B02A0930C02B0930D0269CD8AEE92EE62E076
:20EE80000F94F5F184EE90EE60E00F94F5F18FEC91EE60E00F94F5F1662477244301CC5DDB
:20EEA000DE4F19821882C452D140D401C301B695A79597958795CA5DDE4F88839983AA83B9
:20EEC000BB83C652D140CC5DDE4FA881B981C452D1401196CC5DDE4FB983A883C452D14060
:20EEE000CD0162E070E00F9434F2B0E2B093C6008091C00086FFFCCF8091C0008064809365
:20EF0000C000EDE2E093C6008091C00086FFFCCF8091C00080648093C000F0E2F093C60065
:20EF20008091C00086FFFCCF8091C00080648093C000CA5DDE4FE880F9800A811B81C652B4
:20EF4000D140BB27A12F902F8F2D0F940DF2CA5DDE4F8881C652D1400F940DF2B0E2FB2EEE
:20EF6000F092C6008091C00086FFFCCF8091C00080648093C0000DE30093C6008091C00086
:20EF800086FFFCCF8091C00080648093C00010E21093C6008091C00086FFFCCF8091C0004C
:20EFA00080648093C0008BBEF3012791C65DDE4F2883CA52D140A22EBB24CC24DD24089441
:20EFC000611C711C811C911C8BBEF3018791282E3324442455240894611C711C811C911C0A
:20EFE0008BBEF3013791C55DDE4F3883CB52D1400894611C711C811C911C8BBEF3014791CF
:20F00000C45DDE4F4883CC52D140ADEFEA2EAFEFFA2EAFEF0A2FAFEF1A2F6E0C7F1C801EBD
:20F02000911E142D032DF22CEE24EA0CFB1C0C1D1D1D0F940DF220E22093C6008091C00022
:20F0400086FFFCCF8091C00080648093C000C65DDE4F8881CA52D1400F940DF230E23093DB
:20F06000C6008091C00086FFFCCF8091C00080648093C000C45DDE4F8881CC52D1400F94F8
:20F080000DF240E24093C6008091C00086FFFCCF8091C00080648093C000C55DDE4F8881B5
:20F0A000CB52D1400F940DF250E25093C6008091C00086FFFCCF8091C00080648093C000FC
:20F0C0008FEFE8168FEFF80680E0080780E0180731F484E092EE60E00F94C2F1DFC0D80133
:20F0E000C7018070907CA070B0708050904CA040B040D1F52FEF3FE340E050E0E222F32231
:20F1000004231523CA5DDE4FA880B980CA80DB80C652D140AE0CBF1CC01ED11EAA0CBB1C1E
:20F12000CC1CDD1C8EE092EE60E00F94C2F1BB27A12F902F8F2D0F940DF28E2D0F940DF23E
:20F1400030E23093C6008091C00086FFFCCF8091C00080648093C0004EE34093C600809190
:20F16000C00086FFFCCF87C08EE09EEFA0E0B0E0E822F9220A231B239CE0E91694E9F906A6
:20F1800090E0090790E0190709F088C0C45DDE4FA881CC52D140EA2EFF2400E010E0102F2E
:20F1A0000F2DFE2CEE24C55DDE4FB881CB52D140EB0EF11C011D111DD601C5018170907041
:20F1C000A070B070DC0199278827E80EF91E0A1F1B1F20EF30E040E050E0A222B322C42255
:20F1E000D52241E1AA0CBB1CCC1CDD1C4A95D1F7EA0CFB1C0C1D1D1D81E090E0A0E0B0E090
:20F20000282239224A225B2235E1220C331C441C551C3A95D1F7E20CF31C041D151D5701BD
:20F220006801AA0CBB1CCC1CDD1C85E192EE60E00F94C2F1C801AA27BB270F940DF2BB277B
:20F24000A12F902F8F2D0F940DF28E2D0F940DF290E29093C6008091C00086FFFCCF8091D7
:20F26000C00080648093C000AEE3A093C6008091C00086FFFCCF8091C00080648093C000E4
:20F28000C601AA27BB270F940DF2BB27AD2D9C2D8B2D0F940DF28A2D0F940DF20F94DCF1AA
:20F2A000CC5DDE4FE881F981C452D140F99709F44DCBF4E0EF2EF12C012D112D6E0C7F1CBA
:20F2C000801E911EF2CD83E093EE62E00F94F5F18AE192EE60E00F94C2F18091C00087FF9B
:20F2E000FCCF1091C6001F751093C6008091C00086FFFCCF8091C00080648093C0000F9493
:20F30000DCF1812F81548A3108F036C1163409F495C0173490F4133409F44EC0143430F4C8
:20F320001134F1F0123409F01DC130C0143409F459C0153409F016C16BC01A3409F4C4C029
:20F340001B3438F4173409F48FC0183409F00AC1A1C01B3409F4D2C01C3409F003C1E8C097
:20F360008FEF81B90DC082B1809582B980E090E0E0EDF7E03197F1F70196883C9105C1F7B8
:20F380008091C00087FFEFCF12B8EFC08FEF84B90DC085B1809585B980E090E0E0EDF7E05A
:20F3A0003197F1F70196883C9105C1F78091C00087FFEFCF15B8D9C08FEF87B90DC088B1B5
:20F3C000809588B980E090E0E0EDF7E03197F1F70196883C9105C1F78091C00087FFEFCFF5
:20F3E00018B8C3C08FEF8AB90DC08BB180958BB980E090E0E0EDF7E03197F1F70196883C18
:20F400009105C1F78091C00087FFEFCF1BB8ADC08FEF8DB90DC08EB180958EB980E090E04D
:20F42000E0EDF7E03197F1F70196883C9105C1F78091C00087FFEFCF1EB897C08FEF80BBD4
:20F440000DC081B3809581BB80E090E0E0EDF7E03197F1F70196883C9105C1F78091C000BC
:20F4600087FFEFCF11BA81C08FEF83BB0DC084B3809584BB80E090E0E0EDF7E03197F1F704
:20F480000196883C9105C1F78091C00087FFEFCF14BA6BC08FEF809301010FC0809102013F
:20F4A00080958093020180E090E0E0EDF7E03197F1F70196883C9105C1F78091C00087FFFD
:20F4C000EDCF1092020151C08FEF809304010FC08091050180958093050180E090E0E0ED73
:20F4E000F7E03197F1F70196883C9105C1F78091C00087FFEDCF1092050137C08FEF809399
:20F5000007010FC08091080180958093080180E090E0E0EDF7E03197F1F70196883C9105B4
:20F52000C1F78091C00087FFEDCF109208011DC08FEF80930A010FC080910B0180958093C8
:20F540000B0180E090E0E0EDF7E03197F1F70196883C9105C1F78091C00087FFEDCF10921D
:20F560000B0103C085E292EEEEC98091C00087FFFCCF8091C600EAC988E392EEE4C98CE16D
:20F5800091EEE1C988249924933011F1943028F4913089F09230B8F408C0953061F19530E8
:20F5A000F0F0963009F048C043C02B3109F042C991E06BE13FC96227C15DDE4F2883CF52DC
:20F5C000D14092E037C9B22FA0E0622793E032C9822F90E0A82BB92B622794E02BC92E3029
:20F5E00009F039C3622795E0C05DDE4F19821882C053D1401FC9E1E0F0E0EC0FFD1FC05DC8
:20F60000DE4F08811981C053D140E00FF11F20830F5F1F4FC05DDE4F19830883C053D14063
:20F6200062270A171B0709F005C9D80196E002C9261709F010C303C0973009F0FBC8772433
:20F640009981933109F412C19431C8F4963009F4D8C0973050F4923009F406C1933009F4CF
:20F660006DC0913009F059C253C0913109F477C0923108F0BBC0903109F04FC2F5C0983100
:20F6800009F487C0993150F4953109F4EFC0953108F4C6C1963109F040C2C2C19A3109F450
:20F6A0006CC09A3108F491C09B3109F45BC09D3109F033C29D81903359F48F81882311F478
:20F6C0009EE11CC0813011F091E018C098E916C0892F807591F0903539F4E0E0F0E089E064
:20F6E0008093570094910AC0983539F4E3E0F0E089E080935700949101C090E01A821B82C2
:20F700008D818C831D829E831F8227E030E009C21A8288E08B8381E48C8386E58D8382E521
:20F720008E8389E48F8383E5888780E589878FE58A8782E38B872BE030E0F3C18A818139BD
:20F7400041F0823941F0803911F48FE005C080E003C082E001C08AE01A828B8344C07724A1
:20F76000739482C08D81882311F48EE12CC0813011F081E028C088E926C01A82E1E0F0E0A8
:20F7800089E08093570084918B831C8224E030E0C8C18B81803589F48C81883039F4E2E046
:20F7A000F0E089E08093570084910DC0E0E0F0E089E080935700849106C0E3E0F0E089E08A
:20F7C0008093570084911A82DFCF8D81836C99E0E1E0F0E0082E90935700E89507B600FC73
:20F7E000FDCF1A821B8223E030E09BC180EC8A83CE5CDE4F188219821A821B82C253D14031
:20F800008EC18A8190E0A0E0B0E0582F4427332722278B8190E0A0E0B0E0DC0199278827A1
:20F82000282B392B4A2B5B2B8D8190E0A0E0B0E0282B392B4A2B5B2B8C8190E0A0E0B0E049
:20F84000BA2FA92F982F8827282B392B4A2B5B2B220F331F441F551FC05EDE4F28833983B3
:20F860004A835B83C052D1401A8259C13A81C95CDE4F3883C753D140CA5CDE4F1882C6530B
:20F88000D1408B81C82EDD24CA5CDE4F48815981C653D140C42AD52A933109F082C0CE5C1E
:20F8A000DE4F88819981AA81BB81C253D1408050904CA340B04030F583E0CE5CDE4FE880A5
:20F8C000F9800A811B81C253D140F70100935B0080935700E89507B600FCFDCFCE5CDE4FB9
:20F8E000088119812A813B81C253D14000501F4F2F4F3F4FCE5CDE4F088319832A833B83A5
:20F90000C253D140C05EDE4F488159816A817B81C052D140DE011B9631E08C9111962C91A7
:20F9200011971296C75CDE4F2883C953D140C85CDE4F1882C853D14090E0C85CDE4FE8810E
:20F94000F981C853D1408E2B9F2B0C01FA0160935B0030935700E89511244E5F5F4F6F4F43
:20F960007F4F0EEFE02E0FEFF02ECE0CDF1CC114D10499F685E0C05EDE4F088119812A8106
:20F980003B81C052D140F80120935B0080935700E89507B600FCFDCF81E180935700E895CC
:20F9A00035C0C05EDE4F88819981AA81BB81C052D140B695A795979587957C018601ABE0FC
:20F9C000AA2EB12CAC0EBD1E0BC0D5016D915D01C7010F947FFE0894E11CF11C01501040B1
:20F9E0000115110591F7A60160E070E0440F551F661F771FC05EDE4FE880F9800A811B81E7
:20FA0000C052D1404E0D5F1D601F711F1A82C05EDE4F488359836A837B83C052D1407FC002
:20FA2000FA80C55CDE4FF882CB53D140C65CDE4F1882CA53D1408B81C82EDD24C65CDE4FEC
:20FA400008811981CA53D140C02AD12A1A828981BE016D5F7F4F843121F59601C05EDE4FC4
:20FA6000E880F9800A811B81C052D1400BBFF70187919691DB018C9311969C936E5F7F4FEE
:20FA8000D801C7010296A11DB11DC05EDE4F88839983AA83BB83C052D14022503040F1F6D8
:20FAA00036C0C05EDE4F288139814A815B81C052D1400894C108D108760100E010E00894B7
:20FAC000C11CD11C0894E11CF11C011D111DE20EF31E041F151F21BDBB27A52F942F832F09
:20FAE00082BD2F5F3F4F4F4F5F4FF89A80B5DB018D93BD012E153F054007510761F7C05E42
:20FB0000DE4F288339834A835B83C052D14096012D5F3F4FFB01108204C080EC8A8322E005
:20FB200030E08BE18093C6008091C00086FFFCCF8091C00080648093C000C15DDE4FF88103
:20FB4000CF52D140F093C6008091C00086FFFCCF8091C00080648093C000432F3093C60086
:20FB60008091C00086FFFCCF8091C00080648093C000922F2093C6008091C00086FFFCCF81
:20FB80008091C00080648093C0008EE08093C6008091C00086FFFCCF8091C00080648093AD
:20FBA000C00065E1C15DDE4FE880CF52D1406E2569276427FE01319610C090819093C6001C
:20FBC0008091C00086FFFCCF31968091C00080648093C0006927215030402115310569F778
:20FBE0006093C6008091C00086FFFCCF8091C00080648093C00085B1805885B9772081F44B
:20FC0000C15DDE4F0881CF52D1400F5FC15DDE4F0883CF52D14090E0A0E0B0E00D941AF439
:20FC200027982F9880E090E020ED37E0F9013197F1F7019684369105C9F700008091C00028
:20FC40008D7F8093C00081E180935700E895EE27FF270994FFCF90E00D941AF497FB092EEE
:20FC600007260AD077FD04D02ED006D000201AF4709561957F4F0895F6F7909581959F4FB7
:20FC80000895A1E21A2EAA1BBB1BFD010DC0AA1FBB1FEE1FFF1FA217B307E407F50720F05E
:20FCA000A21BB30BE40BF50B661F771F881F991F1A9469F760957095809590959B01AC01D5
:20FCC000BD01CF010895AA1BBB1B51E107C0AA1FBB1FA617B70710F0A61BB70B881F991F65
:20FCE0005A95A9F780959095BC01CD010895F999FECF92BD81BDF89A992780B50895262FAE
:20FD0000F999FECF1FBA92BD81BD20BD0FB6F894FA9AF99A0FBE01960895F894FFCFFFFF70
:20FD2000FFFFFFFFFFFFFFFFFFFFFFFFFFFFFFFFFFFFFFFFFFFFFFFFFFFFFFFFFFFFFFFFE3
:20FD4000FFFFFFFFFFFFFFFFFFFFFFFFFFFFFFFFFFFFFFFFFFFFFFFFFFFFFFFFFFFFFFFFC3
:20FD6000FFFFFFFFFFFFFFFFFFFFFFFFFFFFFFFFFFFFFFFFFFFFFFFFFFFFFFFFFFFFFFFFA3
:20FD8000FFFFFFFFFFFFFFFFFFFFFFFFFFFFFFFFFFFFFFFFFFFFFFFFFFFFFFFFFFFFFFFF83
:20FDA000FFFFFFFFFFFFFFFFFFFFFFFFFFFFFFFFFFFFFFFFFFFFFFFFFFFFFFFFFFFFFFFF63
:20FDC000FFFFFFFFFFFFFFFFFFFFFFFFFFFFFFFFFFFFFFFFFFFFFFFFFFFFFFFFFFFFFFFF43
:20FDE000FFFFFFFFFFFFFFFFFFFFFFFFFFFFFFFFFFFFFFFFFFFFFFFFFFFFFFFFFFFFFFFF23
:20FE0000FFFFFFFFFFFFFFFFFFFFFFFFFFFFFFFFFFFFFFFFFFFFFFFFFFFFFFFFFFFFFFFF02
:20FE2000FFFFFFFFFFFFFFFFFFFFFFFFFFFFFFFFFFFFFFFFFFFFFFFFFFFFFFFFFFFFFFFFE2
:20FE4000FFFFFFFFFFFFFFFFFFFFFFFFFFFFFFFFFFFFFFFFFFFFFFFFFFFFFFFFFFFFFFFFC2
:20FE6000FFFFFFFFFFFFFFFFFFFFFFFFFFFFFFFFFFFFFFFFFFFFFFFFFFFFFFFFFFFFFFFFA2
:20FE8000FFFFFFFFFFFFFFFFFFFFFFFFFFFFFFFFFFFFFFFFFFFFFFFFFFFFFFFFFFFFFFFF82
:20FEA000FFFFFFFFFFFFFFFFFFFFFFFFFFFFFFFFFFFFFFFFFFFFFFFFFFFFFFFFFFFFFFFF62
:20FEC000FFFFFFFFFFFFFFFFFFFFFFFFFFFFFFFFFFFFFFFFFFFFFFFFFFFFFFFFFFFFFFFF42
:20FEE000FFFFFFFFFFFFFFFFFFFFFFFFFFFFFFFFFFFFFFFFFFFFFFFFFFFFFFFFFFFFFFFF22
:20FF0000FFFFFFFFFFFFFFFFFFFFFFFFFFFFFFFFFFFFFFFFFFFFFFFFFFFFFFFFFFFFFFFF01
:20FF2000FFFFFFFFFFFFFFFFFFFFFFFFFFFFFFFFFFFFFFFFFFFFFFFFFFFFFFFFFFFFFFFFE1
:20FF4000FFFFFFFFFFFFFFFFFFFFFFFFFFFFFFFFFFFFFFFFFFFFFFFFFFFFFFFFFFFFFFFFC1
:20FF6000FFFFFFFFFFFFFFFFFFFFFFFFFFFFFFFFFFFFFFFFFFFFFFFFFFFFFFFFFFFFFFFFA1
:20FF8000FFFFFFFFFFFFFFFFFFFFFFFFFFFFFFFFFFFFFFFFFFFFFFFFFFFFFFFFFFFFFFFF81
:20FFA000FFFFFFFFFFFFFFFFFFFFFFFFFFFFFFFFFFFFFFFFFFFFFFFFFFFFFFFFFFFFFFFF61
:20FFC000FFFFFFFFFFFFFFFFFFFFFFFFFFFFFFFFFFFFFFFFFFFFFFFFFFFFFFFFFFFFFFFF41
:20FFE000FFFFFFFFFFFFFFFFFFFFFFFFFFFFFFFFFFFFFFFFFFFFFFFFFFFFFFFFFFFFFFFF21
:00000001FF
